{
  "contractName": "PhoneSales",
  "abi": [
    {
      "inputs": [],
      "stateMutability": "nonpayable",
      "type": "constructor"
    },
    {
      "anonymous": false,
      "inputs": [
        {
          "indexed": false,
          "internalType": "uint256",
          "name": "sku",
          "type": "uint256"
        }
      ],
      "name": "Completed",
      "type": "event"
    },
    {
      "anonymous": false,
      "inputs": [
        {
          "indexed": false,
          "internalType": "uint256",
          "name": "sku",
          "type": "uint256"
        }
      ],
      "name": "Delivered",
      "type": "event"
    },
    {
      "anonymous": false,
      "inputs": [
        {
          "indexed": false,
          "internalType": "uint256",
          "name": "skuCount",
          "type": "uint256"
        }
      ],
      "name": "ForSale",
      "type": "event"
    },
    {
      "anonymous": false,
      "inputs": [
        {
          "indexed": false,
          "internalType": "uint256",
          "name": "sku",
          "type": "uint256"
        }
      ],
      "name": "Received",
      "type": "event"
    },
    {
      "anonymous": false,
      "inputs": [
        {
          "indexed": false,
          "internalType": "uint256",
          "name": "sku",
          "type": "uint256"
        }
      ],
      "name": "Sold",
      "type": "event"
    },
    {
      "inputs": [
        {
          "internalType": "string",
          "name": "_name",
          "type": "string"
        },
        {
          "internalType": "string",
          "name": "_brand",
          "type": "string"
        },
        {
          "internalType": "uint256",
          "name": "_price",
          "type": "uint256"
        }
      ],
      "name": "addInventory",
      "outputs": [],
      "stateMutability": "nonpayable",
      "type": "function"
    },
    {
      "inputs": [
        {
          "internalType": "uint256",
          "name": "sku",
          "type": "uint256"
        }
      ],
      "name": "buyItem",
      "outputs": [],
      "stateMutability": "payable",
      "type": "function",
      "payable": true
    },
    {
      "inputs": [
        {
          "internalType": "uint256",
          "name": "sku",
          "type": "uint256"
        }
      ],
      "name": "deliveredItem",
      "outputs": [],
      "stateMutability": "nonpayable",
      "type": "function"
    },
    {
      "inputs": [
        {
          "internalType": "uint256",
          "name": "sku",
          "type": "uint256"
        }
      ],
      "name": "receivedItem",
      "outputs": [],
      "stateMutability": "nonpayable",
      "type": "function"
    },
    {
      "inputs": [
        {
          "internalType": "uint256",
          "name": "sku",
          "type": "uint256"
        }
      ],
      "name": "completedOrder",
      "outputs": [],
      "stateMutability": "nonpayable",
      "type": "function"
    },
    {
      "inputs": [
        {
          "internalType": "uint256",
          "name": "_sku",
          "type": "uint256"
        }
      ],
      "name": "fetchItems",
      "outputs": [
        {
          "internalType": "string",
          "name": "_name",
          "type": "string"
        },
        {
          "internalType": "uint256",
          "name": "sku",
          "type": "uint256"
        },
        {
          "internalType": "string",
          "name": "_brand",
          "type": "string"
        },
        {
          "internalType": "uint256",
          "name": "_price",
          "type": "uint256"
        },
        {
          "internalType": "address",
          "name": "_seller",
          "type": "address"
        },
        {
          "internalType": "address",
          "name": "_buyer",
          "type": "address"
        },
        {
          "internalType": "string",
          "name": "statusIs",
          "type": "string"
        }
      ],
      "stateMutability": "view",
      "type": "function",
      "constant": true
    }
  ],
  "bytecode": "0x608060405234801561001057600080fd5b50336000806101000a81548173ffffffffffffffffffffffffffffffffffffffff021916908373ffffffffffffffffffffffffffffffffffffffff16021790555060006001819055506113a2806100686000396000f3fe6080604052600436106100555760003560e01c80631be0c6bc1461005a578063681b19ff146100835780638cee0ed4146100ac57806396a04656146100d5578063bb804492146100fe578063e7fb74c714610141575b600080fd5b34801561006657600080fd5b50610081600480360381019061007c9190610eae565b61015d565b005b34801561008f57600080fd5b506100aa60048036038101906100a59190610eae565b61029a565b005b3480156100b857600080fd5b506100d360048036038101906100ce9190610eae565b6103d7565b005b3480156100e157600080fd5b506100fc60048036038101906100f79190611021565b610513565b005b34801561010a57600080fd5b5061012560048036038101906101209190610eae565b61076e565b6040516101389796959493929190611184565b60405180910390f35b61015b60048036038101906101569190610eae565b610b42565b005b806002600481111561017257610171611208565b5b6002600083815260200190815260200160002060050160149054906101000a900460ff1660048111156101a8576101a7611208565b5b146101b257600080fd5b6002600083815260200190815260200160002060050160009054906101000a900473ffffffffffffffffffffffffffffffffffffffff1673ffffffffffffffffffffffffffffffffffffffff163373ffffffffffffffffffffffffffffffffffffffff161461022057600080fd5b60036002600084815260200190815260200160002060050160146101000a81548160ff0219169083600481111561025a57610259611208565b5b02179055507fa8142743f8f70a4c26f3691cf4ed59718381fb2f18070ec52be1f1022d8555578260405161028e9190611237565b60405180910390a15050565b80600360048111156102af576102ae611208565b5b6002600083815260200190815260200160002060050160149054906101000a900460ff1660048111156102e5576102e4611208565b5b146102ef57600080fd5b6002600083815260200190815260200160002060040160009054906101000a900473ffffffffffffffffffffffffffffffffffffffff1673ffffffffffffffffffffffffffffffffffffffff163373ffffffffffffffffffffffffffffffffffffffff161461035d57600080fd5b60046002600084815260200190815260200160002060050160146101000a81548160ff0219169083600481111561039757610396611208565b5b02179055507fdfd517ed69f8a0a57d49fe494e4864fac3cfe3585c14c0bfddf39f72463ec3fd826040516103cb9190611237565b60405180910390a15050565b80600160048111156103ec576103eb611208565b5b6002600083815260200190815260200160002060050160149054906101000a900460ff16600481111561042257610421611208565b5b1461042c57600080fd5b6002600083815260200190815260200160002060040160009054906101000a900473ffffffffffffffffffffffffffffffffffffffff1673ffffffffffffffffffffffffffffffffffffffff163373ffffffffffffffffffffffffffffffffffffffff161461049a57600080fd5b600280600084815260200190815260200160002060050160146101000a81548160ff021916908360048111156104d3576104d2611208565b5b02179055507ffcc296b8bdd64e3f1d1faadef50cb2d6550f645316330fe57cb1dd7e0612ead0826040516105079190611237565b60405180910390a15050565b60008054906101000a900473ffffffffffffffffffffffffffffffffffffffff1673ffffffffffffffffffffffffffffffffffffffff163373ffffffffffffffffffffffffffffffffffffffff161461056b57600080fd5b600180600082825461057d9190611281565b925050819055507fa96ae0fc3224ebd79eebfe54bd130cc9cb94416cddd1f2386115e00b725324686001546040516105b59190611237565b60405180910390a16040518060e0016040528084815260200160015481526020018281526020018381526020013373ffffffffffffffffffffffffffffffffffffffff16815260200173dcad3a6d3569df655070ded06cb7a1b2ccd1d3af73ffffffffffffffffffffffffffffffffffffffff1681526020016000600481111561064257610641611208565b5b8152506002600060015481526020019081526020016000206000820151816000019080519060200190610676929190610dc1565b50602082015181600101556040820151816002015560608201518160030190805190602001906106a7929190610dc1565b5060808201518160040160006101000a81548173ffffffffffffffffffffffffffffffffffffffff021916908373ffffffffffffffffffffffffffffffffffffffff16021790555060a08201518160050160006101000a81548173ffffffffffffffffffffffffffffffffffffffff021916908373ffffffffffffffffffffffffffffffffffffffff16021790555060c08201518160050160146101000a81548160ff0219169083600481111561076157610760611208565b5b0217905550905050505050565b60606000606060008060006060600260008981526020019081526020016000206001015495506002600089815260200190815260200160002060000180546107b590611306565b80601f01602080910402602001604051908101604052809291908181526020018280546107e190611306565b801561082e5780601f106108035761010080835404028352916020019161082e565b820191906000526020600020905b81548152906001019060200180831161081157829003601f168201915b5050505050965060026000898152602001908152602001600020600301805461085690611306565b80601f016020809104026020016040519081016040528092919081815260200182805461088290611306565b80156108cf5780601f106108a4576101008083540402835291602001916108cf565b820191906000526020600020905b8154815290600101906020018083116108b257829003601f168201915b50505050509450600260008981526020019081526020016000206002015493506002600089815260200190815260200160002060040160009054906101000a900473ffffffffffffffffffffffffffffffffffffffff1692506002600089815260200190815260200160002060050160009054906101000a900473ffffffffffffffffffffffffffffffffffffffff1691506000600260008a815260200190815260200160002060050160149054906101000a900460ff16600481111561099957610998611208565b5b905060008114156109e1576040518060400160405280601581526020017f54686973206974656d20697320666f722073616c6500000000000000000000008152509150610b36565b6001811415610a27576040518060400160405280601781526020017f54686973206974656d20686173206265656e20736f6c640000000000000000008152509150610b35565b6002811415610a6d576040518060400160405280601c81526020017f54686973206974656d20686173206265656e2064656c697665726564000000008152509150610b34565b6003811415610ab3576040518060400160405280601b81526020017f54686973206974656d20686173206265656e20726563656976656400000000008152509150610b33565b6004811415610af9576040518060400160405280601d81526020017f54686973206f7264657220686173206265656e20636f6d706c657465640000008152509150610b32565b6040518060400160405280601881526020017f54686973206f7264657220646f65736e2774206578697374000000000000000081525091505b5b5b5b5b50919395979092949650565b8060006004811115610b5757610b56611208565b5b6002600083815260200190815260200160002060050160149054906101000a900460ff166004811115610b8d57610b8c611208565b5b14610b9757600080fd5b600260008381526020019081526020016000206002015480341015610bbb57600080fd5b6000339050600060026000868152602001908152602001600020600201549050816002600087815260200190815260200160002060050160006101000a81548173ffffffffffffffffffffffffffffffffffffffff021916908373ffffffffffffffffffffffffffffffffffffffff16021790555080341115610cc75760008134610c469190611338565b90506002600087815260200190815260200160002060050160009054906101000a900473ffffffffffffffffffffffffffffffffffffffff1673ffffffffffffffffffffffffffffffffffffffff166108fc829081150290604051600060405180830381858888f19350505050158015610cc4573d6000803e3d6000fd5b50505b60016002600087815260200190815260200160002060050160146101000a81548160ff02191690836004811115610d0157610d00611208565b5b02179055506002600086815260200190815260200160002060040160009054906101000a900473ffffffffffffffffffffffffffffffffffffffff1673ffffffffffffffffffffffffffffffffffffffff166108fc829081150290604051600060405180830381858888f19350505050158015610d82573d6000803e3d6000fd5b507f92f64ca637d023f354075a4be751b169c1a8a9ccb6d33cdd0cb352054399572785604051610db29190611237565b60405180910390a15050505050565b828054610dcd90611306565b90600052602060002090601f016020900481019282610def5760008555610e36565b82601f10610e0857805160ff1916838001178555610e36565b82800160010185558215610e36579182015b82811115610e35578251825591602001919060010190610e1a565b5b509050610e439190610e47565b5090565b5b80821115610e60576000816000905550600101610e48565b5090565b6000604051905090565b600080fd5b600080fd5b6000819050919050565b610e8b81610e78565b8114610e9657600080fd5b50565b600081359050610ea881610e82565b92915050565b600060208284031215610ec457610ec3610e6e565b5b6000610ed284828501610e99565b91505092915050565b600080fd5b600080fd5b6000601f19601f8301169050919050565b7f4e487b7100000000000000000000000000000000000000000000000000000000600052604160045260246000fd5b610f2e82610ee5565b810181811067ffffffffffffffff82111715610f4d57610f4c610ef6565b5b80604052505050565b6000610f60610e64565b9050610f6c8282610f25565b919050565b600067ffffffffffffffff821115610f8c57610f8b610ef6565b5b610f9582610ee5565b9050602081019050919050565b82818337600083830152505050565b6000610fc4610fbf84610f71565b610f56565b905082815260208101848484011115610fe057610fdf610ee0565b5b610feb848285610fa2565b509392505050565b600082601f83011261100857611007610edb565b5b8135611018848260208601610fb1565b91505092915050565b60008060006060848603121561103a57611039610e6e565b5b600084013567ffffffffffffffff81111561105857611057610e73565b5b61106486828701610ff3565b935050602084013567ffffffffffffffff81111561108557611084610e73565b5b61109186828701610ff3565b92505060406110a286828701610e99565b9150509250925092565b600081519050919050565b600082825260208201905092915050565b60005b838110156110e65780820151818401526020810190506110cb565b838111156110f5576000848401525b50505050565b6000611106826110ac565b61111081856110b7565b93506111208185602086016110c8565b61112981610ee5565b840191505092915050565b61113d81610e78565b82525050565b600073ffffffffffffffffffffffffffffffffffffffff82169050919050565b600061116e82611143565b9050919050565b61117e81611163565b82525050565b600060e082019050818103600083015261119e818a6110fb565b90506111ad6020830189611134565b81810360408301526111bf81886110fb565b90506111ce6060830187611134565b6111db6080830186611175565b6111e860a0830185611175565b81810360c08301526111fa81846110fb565b905098975050505050505050565b7f4e487b7100000000000000000000000000000000000000000000000000000000600052602160045260246000fd5b600060208201905061124c6000830184611134565b92915050565b7f4e487b7100000000000000000000000000000000000000000000000000000000600052601160045260246000fd5b600061128c82610e78565b915061129783610e78565b9250827fffffffffffffffffffffffffffffffffffffffffffffffffffffffffffffffff038211156112cc576112cb611252565b5b828201905092915050565b7f4e487b7100000000000000000000000000000000000000000000000000000000600052602260045260246000fd5b6000600282049050600182168061131e57607f821691505b60208210811415611332576113316112d7565b5b50919050565b600061134382610e78565b915061134e83610e78565b92508282101561136157611360611252565b5b82820390509291505056fea264697066735822122059930cc370a72ae1e07196182269fa874d8ab911d507a968d1cbad100959206364736f6c634300080c0033",
  "immutableReferences": {},
  "source": "//SPDX-License-Identifier: GPL-3.0\npragma solidity ^0.8.2 ; \n\n// linter warnings (red underline) about pragma version can igonored!\n\n// contract code will go here\ncontract PhoneSales{\n    address owner;\n    uint skuCount;\n\n    enum Status {ForSale, Sold, Delivered,Received, Completed }\n\n    struct Item{\n        string name;\n        uint sku;\n        uint price;\n        string brand;\n        address seller;\n        address buyer;\n        Status status;\n    }\n    mapping (uint => Item) items;\n\n    event ForSale(uint skuCount);\n    event Sold(uint sku);\n    event Delivered(uint sku);\n    event Received(uint sku);\n    event Completed(uint sku);\n\n    modifier onlyOwner(){\n        require(msg.sender == owner);\n        _;\n    \n    }\n \n    modifier paidEnough(uint _price){\n        require(msg.value >= _price);\n        _;\n    }\n    modifier forSale(uint _sku){\n        require(items[_sku].status == Status.ForSale);\n        _;\n    }\n    modifier sold(uint _sku){\n        require(items[_sku].status == Status.Sold);\n        _;\n    }\n    modifier delivered(uint _sku){\n        require(items[_sku].status == Status.Delivered);\n        _;\n    }\n    modifier received(uint _sku){\n        require(items[_sku].status == Status.Received);\n        _;\n    }\n    modifier completed(uint _sku){\n        require(items[_sku].status == Status.Completed);\n        _;\n    }\n    constructor (){\n        owner = msg.sender;\n        skuCount = 0;\n    }\n\n    function addInventory(string memory _name, string memory _brand, uint _price)  onlyOwner public{\n        skuCount += 1 ;// this increments the sku\n        // emit the ForSale event\n        emit ForSale(skuCount);\n        // add the items to the inventory\n        items[skuCount] = Item({name: _name, sku: skuCount,brand:_brand, price: _price, status: Status.ForSale, seller: msg.sender , buyer: 0xdCad3a6d3569DF655070DEd06cb7A1b2Ccd1D3AF});\n    }\n    function buyItem(uint sku) forSale(sku) paidEnough(items[sku].price)  public payable {\n        \n        address buyer = msg.sender;\n        uint price = items[sku].price;\n        items[sku].buyer = buyer;\n        if (msg.value > price){\n            uint refundAmount = msg.value - price;\n            payable(items[sku].buyer).transfer(refundAmount);\n        }\n        items[sku].status = Status.Sold;\n        payable(items[sku].seller).transfer(price);\n        emit Sold(sku);\n\n    }\n    function deliveredItem(uint sku) sold(sku) public{\n        require(msg. sender == items[sku].seller);\n        items[sku].status = Status.Delivered;\n        emit Delivered(sku);\n        \n    }\n    function receivedItem(uint sku) delivered(sku) public{\n        require(msg. sender == items[sku].buyer);\n        items[sku].status = Status.Received;\n        emit Received(sku);\n        \n    }\n    function completedOrder(uint sku) received(sku) public{\n        require(msg. sender == items[sku].seller);\n        items[sku].status = Status.Completed;\n        emit Completed(sku);\n        \n    }\n    function fetchItems(uint _sku) public view returns (string memory _name, uint sku,string memory _brand, uint _price, address _seller, address _buyer, string memory statusIs){\n       sku = items[_sku].sku;\n       _name = items[_sku].name;\n       _brand = items[_sku].brand;\n       _price = items[_sku].price;\n       _seller = items[_sku].seller;\n       _buyer = items[_sku].buyer;\n       uint status = uint(items[_sku].status);\n       if(status == 0){\n           statusIs = \"This item is for sale\"; \n       }\n       else if (status == 1){\n           statusIs = \"This item has been sold\";\n       }\n       else if (status == 2){\n            statusIs = \"This item has been delivered\";\n       }\n       else if (status == 3){\n            statusIs = \"This item has been received\";\n       }\n       else if (status == 4) {\n           statusIs = \"This order has been completed\";\n       }\n       else{\n           statusIs = \"This order doesn't exist\";\n       }\n\n    }\n\n}\n",
  "sourcePath": "/home/nnamdi/PhoneStartup/contracts/phoneecom.sol",
  "compiler": {
    "name": "solc",
    "version": "0.8.12+commit.f00d7308.Emscripten.clang"
  },
  "schemaVersion": "3.4.6",
  "updatedAt": "2022-03-28T23:07:53.746Z",
  "networkType": "ethereum",
  "devdoc": {
    "kind": "dev",
    "methods": {},
    "version": 1
  },
  "userdoc": {
    "kind": "user",
    "methods": {},
    "version": 1
  }
}